{
  "contractName": "BiddingStorage",
  "abi": [
    {
      "inputs": [],
      "payable": false,
      "stateMutability": "nonpayable",
      "type": "constructor"
    },
    {
      "constant": true,
      "inputs": [],
      "name": "n_prods",
      "outputs": [
        {
          "internalType": "uint256",
          "name": "",
          "type": "uint256"
        }
      ],
      "payable": false,
      "stateMutability": "view",
      "type": "function"
    },
    {
      "constant": true,
      "inputs": [
        {
          "internalType": "uint256",
          "name": "",
          "type": "uint256"
        }
      ],
      "name": "prodOwners",
      "outputs": [
        {
          "internalType": "address",
          "name": "",
          "type": "address"
        }
      ],
      "payable": false,
      "stateMutability": "view",
      "type": "function"
    },
    {
      "constant": true,
      "inputs": [
        {
          "internalType": "uint256",
          "name": "",
          "type": "uint256"
        }
      ],
      "name": "productMap",
      "outputs": [
        {
          "internalType": "uint256",
          "name": "id",
          "type": "uint256"
        },
        {
          "internalType": "string",
          "name": "name",
          "type": "string"
        },
        {
          "internalType": "string",
          "name": "specs",
          "type": "string"
        },
        {
          "internalType": "bool",
          "name": "onBid",
          "type": "bool"
        },
        {
          "internalType": "uint256",
          "name": "minBid",
          "type": "uint256"
        },
        {
          "internalType": "uint256",
          "name": "n_bid",
          "type": "uint256"
        },
        {
          "internalType": "uint256",
          "name": "maxBid",
          "type": "uint256"
        }
      ],
      "payable": false,
      "stateMutability": "view",
      "type": "function"
    },
    {
      "constant": true,
      "inputs": [
        {
          "internalType": "uint256",
          "name": "",
          "type": "uint256"
        }
      ],
      "name": "products",
      "outputs": [
        {
          "internalType": "uint256",
          "name": "id",
          "type": "uint256"
        },
        {
          "internalType": "string",
          "name": "name",
          "type": "string"
        },
        {
          "internalType": "string",
          "name": "specs",
          "type": "string"
        },
        {
          "internalType": "bool",
          "name": "onBid",
          "type": "bool"
        },
        {
          "internalType": "uint256",
          "name": "minBid",
          "type": "uint256"
        },
        {
          "internalType": "uint256",
          "name": "n_bid",
          "type": "uint256"
        },
        {
          "internalType": "uint256",
          "name": "maxBid",
          "type": "uint256"
        }
      ],
      "payable": false,
      "stateMutability": "view",
      "type": "function"
    },
    {
      "constant": true,
      "inputs": [
        {
          "internalType": "address",
          "name": "",
          "type": "address"
        },
        {
          "internalType": "uint256",
          "name": "",
          "type": "uint256"
        }
      ],
      "name": "userAllProds",
      "outputs": [
        {
          "internalType": "uint256",
          "name": "id",
          "type": "uint256"
        },
        {
          "internalType": "string",
          "name": "name",
          "type": "string"
        },
        {
          "internalType": "string",
          "name": "specs",
          "type": "string"
        },
        {
          "internalType": "bool",
          "name": "onBid",
          "type": "bool"
        },
        {
          "internalType": "uint256",
          "name": "minBid",
          "type": "uint256"
        },
        {
          "internalType": "uint256",
          "name": "n_bid",
          "type": "uint256"
        },
        {
          "internalType": "uint256",
          "name": "maxBid",
          "type": "uint256"
        }
      ],
      "payable": false,
      "stateMutability": "view",
      "type": "function"
    },
    {
      "constant": true,
      "inputs": [
        {
          "internalType": "address",
          "name": "",
          "type": "address"
        },
        {
          "internalType": "uint256",
          "name": "",
          "type": "uint256"
        }
      ],
      "name": "userProds",
      "outputs": [
        {
          "internalType": "uint256",
          "name": "id",
          "type": "uint256"
        },
        {
          "internalType": "string",
          "name": "name",
          "type": "string"
        },
        {
          "internalType": "string",
          "name": "specs",
          "type": "string"
        },
        {
          "internalType": "bool",
          "name": "onBid",
          "type": "bool"
        },
        {
          "internalType": "uint256",
          "name": "minBid",
          "type": "uint256"
        },
        {
          "internalType": "uint256",
          "name": "n_bid",
          "type": "uint256"
        },
        {
          "internalType": "uint256",
          "name": "maxBid",
          "type": "uint256"
        }
      ],
      "payable": false,
      "stateMutability": "view",
      "type": "function"
    },
    {
      "constant": true,
      "inputs": [
        {
          "internalType": "address",
          "name": "",
          "type": "address"
        }
      ],
      "name": "users",
      "outputs": [
        {
          "internalType": "string",
          "name": "name",
          "type": "string"
        },
        {
          "internalType": "string",
          "name": "pass",
          "type": "string"
        },
        {
          "internalType": "bool",
          "name": "isSet",
          "type": "bool"
        }
      ],
      "payable": false,
      "stateMutability": "view",
      "type": "function"
    },
    {
      "constant": false,
      "inputs": [
        {
          "internalType": "uint256",
          "name": "prodId",
          "type": "uint256"
        },
        {
          "internalType": "uint256",
          "name": "bidId",
          "type": "uint256"
        }
      ],
      "name": "acceptBid",
      "outputs": [],
      "payable": false,
      "stateMutability": "nonpayable",
      "type": "function"
    },
    {
      "constant": false,
      "inputs": [
        {
          "internalType": "string",
          "name": "name",
          "type": "string"
        },
        {
          "internalType": "string",
          "name": "specs",
          "type": "string"
        }
      ],
      "name": "addProduct",
      "outputs": [],
      "payable": false,
      "stateMutability": "nonpayable",
      "type": "function"
    },
    {
      "constant": false,
      "inputs": [
        {
          "internalType": "uint256",
          "name": "prodId",
          "type": "uint256"
        },
        {
          "internalType": "uint256",
          "name": "minBid",
          "type": "uint256"
        }
      ],
      "name": "setProdForBid",
      "outputs": [],
      "payable": false,
      "stateMutability": "nonpayable",
      "type": "function"
    },
    {
      "constant": false,
      "inputs": [
        {
          "internalType": "uint256",
          "name": "prodId",
          "type": "uint256"
        },
        {
          "internalType": "uint256",
          "name": "amount",
          "type": "uint256"
        }
      ],
      "name": "addMyBid",
      "outputs": [],
      "payable": false,
      "stateMutability": "nonpayable",
      "type": "function"
    },
    {
      "constant": true,
      "inputs": [
        {
          "internalType": "uint256",
          "name": "prodId",
          "type": "uint256"
        },
        {
          "internalType": "uint256",
          "name": "bidId",
          "type": "uint256"
        }
      ],
      "name": "getBid",
      "outputs": [
        {
          "internalType": "uint256",
          "name": "",
          "type": "uint256"
        }
      ],
      "payable": false,
      "stateMutability": "view",
      "type": "function"
    }
  ],
  "bytecode": "0x608060405234801561001057600080fd5b506000600381905550612021806100286000396000f3fe608060405234801561001057600080fd5b50600436106100b45760003560e01c8063a87430ba11610071578063a87430ba14610427578063ad0d41471461055b578063ca2efb55146106b5578063d026a15814610807578063d7f0719d1461083f578063f10e6d5114610979576100b4565b806302e9d5e4146100b9578063582c7ffd146100f157806359f40d851461013d5780635f7191e1146101755780637acc0b20146102cf57806385c4f80514610409575b600080fd5b6100ef600480360360408110156100cf57600080fd5b8101908080359060200190929190803590602001909291905050506109e7565b005b6101276004803603604081101561010757600080fd5b810190808035906020019092919080359060200190929190505050610c70565b6040518082815260200191505060405180910390f35b6101736004803603604081101561015357600080fd5b810190808035906020019092919080359060200190929190505050610ce7565b005b6101c16004803603604081101561018b57600080fd5b81019080803573ffffffffffffffffffffffffffffffffffffffff16906020019092919080359060200190929190505050611008565b60405180888152602001806020018060200187151515158152602001868152602001858152602001848152602001838103835289818151815260200191508051906020019080838360005b8381101561022757808201518184015260208101905061020c565b50505050905090810190601f1680156102545780820380516001836020036101000a031916815260200191505b50838103825288818151815260200191508051906020019080838360005b8381101561028d578082015181840152602081019050610272565b50505050905090810190601f1680156102ba5780820380516001836020036101000a031916815260200191505b50995050505050505050505060405180910390f35b6102fb600480360360208110156102e557600080fd5b8101908080359060200190929190505050611194565b60405180888152602001806020018060200187151515158152602001868152602001858152602001848152602001838103835289818151815260200191508051906020019080838360005b83811015610361578082015181840152602081019050610346565b50505050905090810190601f16801561038e5780820380516001836020036101000a031916815260200191505b50838103825288818151815260200191508051906020019080838360005b838110156103c75780820151818401526020810190506103ac565b50505050905090810190601f1680156103f45780820380516001836020036101000a031916815260200191505b50995050505050505050505060405180910390f35b610411611320565b6040518082815260200191505060405180910390f35b6104696004803603602081101561043d57600080fd5b81019080803573ffffffffffffffffffffffffffffffffffffffff169060200190929190505050611326565b60405180806020018060200184151515158152602001838103835286818151815260200191508051906020019080838360005b838110156104b757808201518184015260208101905061049c565b50505050905090810190601f1680156104e45780820380516001836020036101000a031916815260200191505b50838103825285818151815260200191508051906020019080838360005b8381101561051d578082015181840152602081019050610502565b50505050905090810190601f16801561054a5780820380516001836020036101000a031916815260200191505b509550505050505060405180910390f35b6105a76004803603604081101561057157600080fd5b81019080803573ffffffffffffffffffffffffffffffffffffffff1690602001909291908035906020019092919050505061148d565b60405180888152602001806020018060200187151515158152602001868152602001858152602001848152602001838103835289818151815260200191508051906020019080838360005b8381101561060d5780820151818401526020810190506105f2565b50505050905090810190601f16801561063a5780820380516001836020036101000a031916815260200191505b50838103825288818151815260200191508051906020019080838360005b83811015610673578082015181840152602081019050610658565b50505050905090810190601f1680156106a05780820380516001836020036101000a031916815260200191505b50995050505050505050505060405180910390f35b610805600480360360408110156106cb57600080fd5b81019080803590602001906401000000008111156106e857600080fd5b8201836020820111156106fa57600080fd5b8035906020019184600183028401116401000000008311171561071c57600080fd5b91908080601f016020809104026020016040519081016040528093929190818152602001838380828437600081840152601f19601f8201169050808301925050505050505091929192908035906020019064010000000081111561077f57600080fd5b82018360208201111561079157600080fd5b803590602001918460018302840111640100000000831117156107b357600080fd5b91908080601f016020809104026020016040519081016040528093929190818152602001838380828437600081840152601f19601f820116905080830192505050505050509192919290505050611626565b005b61083d6004803603604081101561081d57600080fd5b8101908080359060200190929190803590602001909291905050506119ee565b005b61086b6004803603602081101561085557600080fd5b8101908080359060200190929190505050611c50565b60405180888152602001806020018060200187151515158152602001868152602001858152602001848152602001838103835289818151815260200191508051906020019080838360005b838110156108d15780820151818401526020810190506108b6565b50505050905090810190601f1680156108fe5780820380516001836020036101000a031916815260200191505b50838103825288818151815260200191508051906020019080838360005b8381101561093757808201518184015260208101905061091c565b50505050905090810190601f1680156109645780820380516001836020036101000a031916815260200191505b50995050505050505050505060405180910390f35b6109a56004803603602081101561098f57600080fd5b8101908080359060200190929190505050611dcf565b604051808273ffffffffffffffffffffffffffffffffffffffff1673ffffffffffffffffffffffffffffffffffffffff16815260200191505060405180910390f35b6000600660003373ffffffffffffffffffffffffffffffffffffffff1673ffffffffffffffffffffffffffffffffffffffff16815260200190815260200160002060008481526020019081526020016000209050600081600501600084815260200190815260200160002060010160009054906101000a900473ffffffffffffffffffffffffffffffffffffffff169050806004600086815260200190815260200160002060006101000a81548173ffffffffffffffffffffffffffffffffffffffff021916908373ffffffffffffffffffffffffffffffffffffffff16021790555081600660008373ffffffffffffffffffffffffffffffffffffffff1673ffffffffffffffffffffffffffffffffffffffff16815260200190815260200160002060008681526020019081526020016000206000820154816000015560018201816001019080546001816001161561010002031660029004610b4c929190611e02565b5060028201816002019080546001816001161561010002031660029004610b74929190611e02565b506003820160009054906101000a900460ff168160030160006101000a81548160ff021916908315150217905550600482015481600401556006820154816006015560078201548160070155905050600660003373ffffffffffffffffffffffffffffffffffffffff1673ffffffffffffffffffffffffffffffffffffffff1681526020019081526020016000206000858152602001908152602001600020600080820160009055600182016000610c2c9190611e89565b600282016000610c3c9190611e89565b6003820160006101000a81549060ff0219169055600482016000905560068201600090556007820160009055505050505050565b600080600660003373ffffffffffffffffffffffffffffffffffffffff1673ffffffffffffffffffffffffffffffffffffffff168152602001908152602001600020600085815260200190815260200160002090508060050160008481526020019081526020016000206002015491505092915050565b610cef611ed1565b600181600001818152505033816020019073ffffffffffffffffffffffffffffffffffffffff16908173ffffffffffffffffffffffffffffffffffffffff16815250508181604001818152505060006004600085815260200190815260200160002060009054906101000a900473ffffffffffffffffffffffffffffffffffffffff169050600660008273ffffffffffffffffffffffffffffffffffffffff1673ffffffffffffffffffffffffffffffffffffffff168152602001908152602001600020600085815260200190815260200160002060040154831115611002576000600660008373ffffffffffffffffffffffffffffffffffffffff1673ffffffffffffffffffffffffffffffffffffffff168152602001908152602001600020600086815260200190815260200160002060060154905082600660008473ffffffffffffffffffffffffffffffffffffffff1673ffffffffffffffffffffffffffffffffffffffff168152602001908152602001600020600087815260200190815260200160002060050160008381526020019081526020016000206000820151816000015560208201518160010160006101000a81548173ffffffffffffffffffffffffffffffffffffffff021916908373ffffffffffffffffffffffffffffffffffffffff16021790555060408201518160020155905050600660008373ffffffffffffffffffffffffffffffffffffffff1673ffffffffffffffffffffffffffffffffffffffff168152602001908152602001600020600086815260200190815260200160002060070154841115610f9e5783600660008473ffffffffffffffffffffffffffffffffffffffff1673ffffffffffffffffffffffffffffffffffffffff1681526020019081526020016000206000878152602001908152602001600020600701819055505b6001600660008473ffffffffffffffffffffffffffffffffffffffff1673ffffffffffffffffffffffffffffffffffffffff168152602001908152602001600020600087815260200190815260200160002060060160008282540192505081905550505b50505050565b600660205281600052604060002060205280600052604060002060009150915050806000015490806001018054600181600116156101000203166002900480601f0160208091040260200160405190810160405280929190818152602001828054600181600116156101000203166002900480156110c75780601f1061109c576101008083540402835291602001916110c7565b820191906000526020600020905b8154815290600101906020018083116110aa57829003601f168201915b505050505090806002018054600181600116156101000203166002900480601f0160208091040260200160405190810160405280929190818152602001828054600181600116156101000203166002900480156111655780601f1061113a57610100808354040283529160200191611165565b820191906000526020600020905b81548152906001019060200180831161114857829003601f168201915b5050505050908060030160009054906101000a900460ff16908060040154908060060154908060070154905087565b600181815481106111a157fe5b9060005260206000209060080201600091509050806000015490806001018054600181600116156101000203166002900480601f0160208091040260200160405190810160405280929190818152602001828054600181600116156101000203166002900480156112535780601f1061122857610100808354040283529160200191611253565b820191906000526020600020905b81548152906001019060200180831161123657829003601f168201915b505050505090806002018054600181600116156101000203166002900480601f0160208091040260200160405190810160405280929190818152602001828054600181600116156101000203166002900480156112f15780601f106112c6576101008083540402835291602001916112f1565b820191906000526020600020905b8154815290600101906020018083116112d457829003601f168201915b5050505050908060030160009054906101000a900460ff16908060040154908060060154908060070154905087565b60035481565b6000602052806000526040600020600091509050806000018054600181600116156101000203166002900480601f0160208091040260200160405190810160405280929190818152602001828054600181600116156101000203166002900480156113d25780601f106113a7576101008083540402835291602001916113d2565b820191906000526020600020905b8154815290600101906020018083116113b557829003601f168201915b505050505090806001018054600181600116156101000203166002900480601f0160208091040260200160405190810160405280929190818152602001828054600181600116156101000203166002900480156114705780601f1061144557610100808354040283529160200191611470565b820191906000526020600020905b81548152906001019060200180831161145357829003601f168201915b5050505050908060020160009054906101000a900460ff16905083565b600560205281600052604060002081815481106114a657fe5b906000526020600020906008020160009150915050806000015490806001018054600181600116156101000203166002900480601f0160208091040260200160405190810160405280929190818152602001828054600181600116156101000203166002900480156115595780601f1061152e57610100808354040283529160200191611559565b820191906000526020600020905b81548152906001019060200180831161153c57829003601f168201915b505050505090806002018054600181600116156101000203166002900480601f0160208091040260200160405190810160405280929190818152602001828054600181600116156101000203166002900480156115f75780601f106115cc576101008083540402835291602001916115f7565b820191906000526020600020905b8154815290600101906020018083116115da57829003601f168201915b5050505050908060030160009054906101000a900460ff16908060040154908060060154908060070154905087565b61162e611f08565b60035481600001818152505082816020018190525081816040018190525060008160a001818152505060008160600190151590811515815250508060026000836000015181526020019081526020016000206000820151816000015560208201518160010190805190602001906116a6929190611f47565b5060408201518160020190805190602001906116c3929190611f47565b5060608201518160030160006101000a81548160ff0219169083151502179055506080820151816004015560a0820151816006015560c0820151816007015590505060018190806001815401808255809150509060018203906000526020600020906008020160009091929091909150600082015181600001556020820151816001019080519060200190611759929190611f47565b506040820151816002019080519060200190611776929190611f47565b5060608201518160030160006101000a81548160ff0219169083151502179055506080820151816004015560a0820151816006015560c0820151816007015550505033600460008360000151815260200190815260200160002060006101000a81548173ffffffffffffffffffffffffffffffffffffffff021916908373ffffffffffffffffffffffffffffffffffffffff160217905550600560003373ffffffffffffffffffffffffffffffffffffffff1673ffffffffffffffffffffffffffffffffffffffff168152602001908152602001600020819080600181540180825580915050906001820390600052602060002090600802016000909192909190915060008201518160000155602082015181600101908051906020019061189f929190611f47565b5060408201518160020190805190602001906118bc929190611f47565b5060608201518160030160006101000a81548160ff0219169083151502179055506080820151816004015560a0820151816006015560c0820151816007015550505080600660003373ffffffffffffffffffffffffffffffffffffffff1673ffffffffffffffffffffffffffffffffffffffff168152602001908152602001600020600083600001518152602001908152602001600020600082015181600001556020820151816001019080519060200190611979929190611f47565b506040820151816002019080519060200190611996929190611f47565b5060608201518160030160006101000a81548160ff0219169083151502179055506080820151816004015560a0820151816006015560c082015181600701559050506001600360008282540192505081905550505050565b60008090505b600560003373ffffffffffffffffffffffffffffffffffffffff1673ffffffffffffffffffffffffffffffffffffffff16815260200190815260200160002080549050811015611b8757600560003373ffffffffffffffffffffffffffffffffffffffff1673ffffffffffffffffffffffffffffffffffffffff1681526020019081526020016000208181548110611a8857fe5b906000526020600020906008020160000154831415611b7a576001600560003373ffffffffffffffffffffffffffffffffffffffff1673ffffffffffffffffffffffffffffffffffffffff1681526020019081526020016000208281548110611aed57fe5b906000526020600020906008020160030160006101000a81548160ff02191690831515021790555081600560003373ffffffffffffffffffffffffffffffffffffffff1673ffffffffffffffffffffffffffffffffffffffff1681526020019081526020016000208281548110611b6057fe5b906000526020600020906008020160040181905550611b87565b80806001019150506119f4565b506001600660003373ffffffffffffffffffffffffffffffffffffffff1673ffffffffffffffffffffffffffffffffffffffff168152602001908152602001600020600084815260200190815260200160002060030160006101000a81548160ff02191690831515021790555080600660003373ffffffffffffffffffffffffffffffffffffffff1673ffffffffffffffffffffffffffffffffffffffff1681526020019081526020016000206000848152602001908152602001600020600401819055505050565b6002602052806000526040600020600091509050806000015490806001018054600181600116156101000203166002900480601f016020809104026020016040519081016040528092919081815260200182805460018160011615610100020316600290048015611d025780601f10611cd757610100808354040283529160200191611d02565b820191906000526020600020905b815481529060010190602001808311611ce557829003601f168201915b505050505090806002018054600181600116156101000203166002900480601f016020809104026020016040519081016040528092919081815260200182805460018160011615610100020316600290048015611da05780601f10611d7557610100808354040283529160200191611da0565b820191906000526020600020905b815481529060010190602001808311611d8357829003601f168201915b5050505050908060030160009054906101000a900460ff16908060040154908060060154908060070154905087565b60046020528060005260406000206000915054906101000a900473ffffffffffffffffffffffffffffffffffffffff1681565b828054600181600116156101000203166002900490600052602060002090601f016020900481019282601f10611e3b5780548555611e78565b82800160010185558215611e7857600052602060002091601f016020900482015b82811115611e77578254825591600101919060010190611e5c565b5b509050611e859190611fc7565b5090565b50805460018160011615610100020316600290046000825580601f10611eaf5750611ece565b601f016020900490600052602060002090810190611ecd9190611fc7565b5b50565b604051806060016040528060008152602001600073ffffffffffffffffffffffffffffffffffffffff168152602001600081525090565b6040518060e001604052806000815260200160608152602001606081526020016000151581526020016000815260200160008152602001600081525090565b828054600181600116156101000203166002900490600052602060002090601f016020900481019282601f10611f8857805160ff1916838001178555611fb6565b82800160010185558215611fb6579182015b82811115611fb5578251825591602001919060010190611f9a565b5b509050611fc39190611fc7565b5090565b611fe991905b80821115611fe5576000816000905550600101611fcd565b5090565b9056fea265627a7a72315820314205503c52d50bac72bcf2067837372816d353def53fe61cb3fe22dc15c13764736f6c63430005100032",
  "source": "pragma solidity >=0.4.21 <0.6.0;\r\n\r\n\r\n\r\n\r\n// contract Product{\r\n\r\n// }\r\n\r\n\r\ncontract BiddingStorage {\r\n\r\n\r\nstruct User{\r\n    string name;\r\n    string pass;\r\n    bool isSet;\r\n\r\n\r\n}\r\n\r\n\r\n\r\nstruct Bid{\r\n    uint256  bidId;\r\n    address  bidUserAddress;\r\n    uint256  bidAmount;\r\n}\r\n\r\nstruct Product{\r\n    uint256  id;\r\n    string  name;\r\n    string  specs;\r\n    bool  onBid;\r\n    uint256  minBid;\r\n    //Bid[]  bidlist;\r\n    mapping  (uint256 => Bid) bids;\r\n    uint256 n_bid;\r\n    uint256  maxBid;\r\n\r\n}\r\n\r\n\r\n\r\n\r\n    // string[] public choices;\r\n    // mapping(address => string) public votes;\r\n    // mapping(address => string) public allowedAddresses;\r\n    // mapping(string => uint256) public voteChoices;\r\n\r\n    // address[] public voters;\r\n    // uint256 public n_choices;\r\n    // uint256 public n_voters;\r\n    // uint256 public choiceThresh;\r\n    // address payable public owner;\r\n    // uint256 public voteCount;\r\n    // uint256 public voteThresh;\r\n    // uint256 public maxVotes;\r\n    // uint256 public winningChoice;\r\n\r\n    mapping(address => User) public users;\r\n    Product[] public products;\r\n\r\n    mapping  (uint256 => Product ) public productMap;\r\n    uint256 public n_prods;\r\n    mapping  (uint256 => address) public prodOwners;\r\n    //mapping(uint256 => Bid)\r\n    mapping  (address => Product[]) public userProds;\r\n    mapping  (address => mapping(uint256 => Product)) public userAllProds;\r\n    constructor() public {\r\n        // owner = msg.sender;\r\n        // // choiceThresh = _choiceThresh;\r\n        // // voteThresh = _voteThresh;\r\n        // voteCount = 0;\r\n        // n_choices = 0;\r\n        // n_voters = 0;\r\n        // maxVotes = 0;\r\n        n_prods = 0;\r\n    }\r\n\r\n\r\n\r\n    function acceptBid(uint256 prodId,uint256 bidId)public {\r\n        Product storage prod = userAllProds[msg.sender][prodId];\r\n        address bidderAddr = prod.bids[bidId].bidUserAddress;\r\n\r\n        prodOwners[prodId] = bidderAddr;\r\n        userAllProds[bidderAddr][prodId] = prod;\r\n        delete userAllProds[msg.sender][prodId];\r\n    }\r\n\r\n    function addProduct(string memory name, string memory specs)public{\r\n        Product memory prod;\r\n        prod.id = n_prods;\r\n        prod.name = name;\r\n        prod.specs = specs;\r\n        prod.n_bid = 0;\r\n        prod.onBid = false;\r\n\r\n        productMap[prod.id] = prod;\r\n\r\n        products.push(prod);\r\n\r\n        prodOwners[prod.id] = msg.sender;\r\n\r\n        userProds[msg.sender].push(prod);\r\n\r\n        userAllProds[msg.sender][prod.id] = prod;\r\n        n_prods += 1;\r\n    }\r\n\r\n\r\n    function setProdForBid(uint256 prodId, uint256 minBid)public{\r\n        for (uint i = 0; i < userProds[msg.sender].length ; i++){\r\n            if (prodId == userProds[msg.sender][i].id){\r\n                userProds[msg.sender][i].onBid = true;\r\n                userProds[msg.sender][i].minBid = minBid;\r\n                break;\r\n\r\n            }\r\n        }\r\n\r\n        userAllProds[msg.sender][prodId].onBid = true;\r\n        userAllProds[msg.sender][prodId].minBid = minBid;\r\n\r\n    }\r\n\r\n\r\n    function addMyBid(uint256 prodId, uint256 amount)public{\r\n        Bid memory bid;\r\n        bid.bidId = 1;\r\n        bid.bidUserAddress = msg.sender;\r\n        bid.bidAmount = amount;\r\n\r\n        address  prOwner = prodOwners[prodId];\r\n\r\n        if (amount>userAllProds[prOwner][prodId].minBid){\r\n            uint256 n = userAllProds[prOwner][prodId].n_bid;\r\n\r\n            userAllProds[prOwner][prodId].bids[n] = bid;\r\n            // userAllProds[prOwner][prodId].bidlist.push(bid);\r\n\r\n            if (amount > userAllProds[prOwner][prodId].maxBid){\r\n                userAllProds[prOwner][prodId].maxBid = amount;\r\n            }\r\n\r\n            userAllProds[prOwner][prodId].n_bid += 1;\r\n        }\r\n    }\r\n\r\n    function getBid(uint256 prodId, uint bidId)public view returns (uint256){\r\n        Product storage prod = userAllProds[msg.sender][prodId];\r\n        return prod.bids[bidId].bidAmount;\r\n    }\r\n\r\n    //function acceptBid()\r\n\r\n\r\n\r\n}",
  "sourcePath": "D:\\Semester8\\IBC\\truffle\\biddingStorage\\contracts\\BiddingStorage.sol",
  "compiler": {
    "name": "solc",
    "version": "0.5.16+commit.9c3226ce.Emscripten.clang"
  },
  "schemaVersion": "3.1.0",
  "updatedAt": "2020-06-11T14:00:18.611Z",
  "networkType": "ethereum",
  "devdoc": {
    "methods": {}
  },
  "userdoc": {
    "methods": {}
  }
}